:020000040800F2
:1000000060100020C5070008ED260008B1070008B1
:10001000B1070008B1070008B107000800000000A0
:10002000000000000000000000000000F9070008C8
:10003000B1070008000000004D090008391300084E
:10004000B9090008B9090008B9090008B909000888
:10005000B9090008B9090008B9090008B909000878
:10006000B9090008B9090008B9090008B909000868
:10007000B9090008B9090008B9090008B909000858
:10008000B9090008B9090008B9090008B909000848
:10009000B9090008B9090008B9090008B909000838
:1000A000B9090008B9090008B9090008B909000828
:1000B000B9090008B9090008B9090008B909000818
:1000C000B9090008B9090008B9090008B909000808
:1000D000B9090008B9090008B9090008B9090008F8
:0400E000B909000852
:1000E400F8B51B4802F058FE10B91A4802F09DFA00
:1000F400174C2269A1681368204623F40053136047
:100104000B684FF420220D219847002804DA124886
:1001140002F08BFA0020F8BD104802F086FA01259F
:100124000F4F104EA3684FF4005120465B69984767
:100134000028EFDB95F001050CBF394631460A482B
:1001440002F073FA42F21070002101F009FDE9E7B0
:100154003831000835350008443500085D3500089D
:10016400313500082E3500088135000808B50248ED
:1001740002F05BFA002008BD90350008014B1B68B3
:10018400184700BF0800002030B585B004460D466E
:1001940010220021684602F0E5FE02238DF80230A9
:1001A400044B2A4621466846019301F089FF05B0B5
:1001B40030BD00BF81010008014B1860704700BFCB
:1001C40008000020074B00205A6822F001025A6000
:1001D4005A6822F002025A605A6822F004025A60F5
:1001E400704700BF002004E008B5416805480C31A1
:1001F40083681B681BB1984700EAE07008BD6FF084
:100204005700F9E7C8300008042810B502D90024C3
:10021400204610BD044B53F82040204602F0BCFD9C
:100224000028F5D1F3E700BF0C340008044A136832
:1002340043F010031360034B034A1A60704700BF76
:10024400002002404000002000127A0080B50546DC
:100254000E461746984601F003FD034600F0BCFB2A
:100264000446DFF81890424649F8003039463046D3
:10027400A84754F8090000F051FB00BF0800000033
:1002840008B50348034A0021121A02F025FA08BDF2
:100294008000002060030020074808B5074A084989
:1002A400121A02F01BFABDE808400648064A07493C
:1002B400121A02F013BA00BF000000207C000020D4
:1002C400B03B00080000002000000020B03B000804
:1002D40070B505460C46D9B102F0A4F9D4E901235E
:1002E4002168144802F0A1F902F09CF9D4E904232E
:1002F400E168114802F099F902F094F9E1690F48B4
:1003040002F093F902F08EF9A1690D4802F08DF91B
:10031400012D08D1EFF3058602F084F90948A6F10E
:10032400100102F082F921462846BDE8704001F030
:100334007FB800BF12360008423600087236000843
:1003440082360008B136000830BFFFF7FDBF00BF9A
:100354002DE9F04105460B4EDFF82C80324606EBC2
:100364000807CC1B2046094902F0EEFDA0194246BD
:100374000021083C02F0F6FD6C6607F10800BDE8B8
:10038400F08100BF0000000004000000A833000852
:1003940010B5244C02F046F9234802F046F9A36A4A
:1003A40099013CD502F03EF9204802F03EF91E20A6
:1003B400A36ADA0105D502F035F91D4802F035F9D2
:1003C4001F20184CA36A1B0305D502F02BF919480A
:1003D40002F02BF92120A36A590305D502F022F972
:1003E400154802F022F922200E4CA36A9A0305D57F
:1003F40002F018F9114802F018F92320A36ADB036C
:1004040005D502F00FF90E4802F00FF92420054A31
:10041400936A6FEA03436FEA1343936210BD1D208E
:10042400C6E700BF00ED00E0C5360008DE36000870
:10043400F23600080D3700082C3700085237000840
:100444006D370008F8B5274C06460D4602F0EAF869
:10045400254802F0EAF8A36ADA0441D502F0E2F88A
:10046400224802F0E2F81720A36A1B0505D502F022
:10047400D9F81F4802F0D9F818201A4CA36A9F052E
:1004840013D502F0CFF81B4802F0CFF8A76BA36A8C
:10049400190409D502F0C6F83946174802F0C5F820
:1004A40016B14FF40043A36219200E4CA36A5A05F7
:1004B40005D502F0B7F8114802F0B7F81A20A36A7C
:1004C400DB0505D502F0AEF80D4802F0AEF81B20AE
:1004D400044A936A43F47F43936200232B70F8BD6C
:1004E4001620C1E700ED00E099370008B037000896
:1004F400C2370008D6370008F0370008063800086D
:1005040022380008F8B5244C06460D4602F08AF855
:10051400224802F08AF8A36ADA063BD502F082F890
:100524001F4802F082F81120A36A1B0705D502F0C8
:1005340079F81C4802F079F81220174CA36A9F0737
:1005440012D502F06FF8184802F06FF8676BA36ACF
:10055400190608D502F066F83946144802F065F821
:100564000EB18023A36213200B4CA36ADA0705D5CE
:1005740002F058F80E4802F058F81420A36A064A0C
:10058400DB0658BFA36A936A43F0FF039362002318
:100594002B70F8BD1020C7E700ED00E03B380008E1
:1005A40052380008C2370008863800089F3800080F
:1005B400B63800082DE9F0416A4B04465F6800250F
:1005C4008AB0C7F3080685F31188BFF36F8F02F072
:1005D4007F43B3F17F4F08D102F00C03082B10D1F5
:1005E40002F020F8604802F020F802F01BF85F489F
:1005F40002F01BF8002108460AB0BDE8F041FFF7FD
:1006040067BE10074CBF0C460125002CEDD04FF0FF
:100614000008F31E8DF80780092B00F29280DFE8B2
:1006240003F00584888090909090908C01F0FAFFFC
:100634004C4E4F4801F0F9FF8DF80780F36A9A0792
:1006440006D501F0EFFF4B4801F0EFFF002330E047
:10065400F36A002B03DA01F0E5FF4748F4E7F36A95
:100664005B00F3D501F0DEFF444801F0DEFF73695F
:10067400A26943F480737361BFF34F8FBFF36F8F2D
:1006840032F8023C726922F480727261BFF34F8FB8
:10069400BFF36F8F03F47F42B2F55F4F29D1DBB212
:1006A400022B26D101F0BEFF2168354801F0BDFFC1
:1006B40023689DF80720CAB902AE04F12007324628
:1006C40020686168083403C2BC421646F7D1099A0F
:1006D400002D44D0C2F3080121B96FEA52226FEA17
:1006E40042220992184602A9FFF7F2FD0AB0BDE8BA
:1006F400F0811C4B9A6AD2B22AB101200DF1070194
:10070400FFF700FF0FE09A6A12F47F4F05D0012033
:100714000DF10701FFF796FE05E09B6AB3F5803FF4
:1007240094D3FFF735FE0346C3E700200DF107011C
:10073400E6E700200DF10701ECE701F073FF114833
:1007440082E701F06FFF104B17F4F87F0F49104850
:1007540008BF1946A6F1100201F067FF76E76FF3B0
:100764000802BEE700ED00E0043900083039000853
:100774006D39000885390008A7390008B639000822
:10078400D6390008F3390008D6380008EB380008D9
:10079400183A0008044B5A6942F010025A615A6927
:1007A40022F008025A61704700ED00E0EFF3088080
:1007B400EFF3098101B57246FFF7FCFE01BD00BFEE
:1007C4000A4880F30888102080F3118808484FF401
:1007D4000061401880F30988EFF314800221084374
:1007E40080F31488BFF36F8F01F089FF601000203D
:1007F400600300201EF0040F0CBFEFF30880EFF33A
:100804000980816911F8021C0229FFD001B57246E2
:1008140001F066FF01BD00BF40B2002807DB0123E1
:100824004109034A00F01F00834042F82130704719
:1008340000E100E040B2002801F10101ACBF00F189
:100844006040064B4FEA0111C9B2ABBF00F56140ED
:1008540000F00F0080F800131954704714ED00E005
:10086400054B064A23F0404323F07F039360BFF314
:100874004F8FBFF36F8F70470000000800ED00E05A
:1008840042F8203C009B0B4942F81C3C019B21F0A0
:10089400010142F8183C029B42F8081C42F8143C3F
:1008A4004FF0807342F8043C0023203A02658367CA
:1008B400704700BF5102000800B50B4B1546986005
:1008C400426E0A4B0E461A602C4686F309880020B5
:1008D400034B98472046002100220023014C204767
:1008E4001F2700085102000828030020800200206E
:1008F4001022014B1A61704700ED00E0054B5A6964
:100904009B689A421FBF044A536843F08053536064
:10091400704700BF2803002000ED00E0084B9B68EF
:1009240083420BD1EFF3058343B1064B5A6842F07F
:1009340080525A605A6A22F400425A6202F06CBA37
:100944002803002000ED00E011498A684FF03000D0
:100954001044EFF3098C80E8F01F102080F3128814
:10096400BFF36F8F0B4F4FF000664A698A603E6099
:10097400506E094C2060906F0023936780F31188B8
:1009840002F1300090E8F01F8CF3098870470000F2
:100994002803002004ED00E0800200200023102141
:1009A4000348C2180133292B82F80013F9D1704788
:1009B40000E100E008B5EFF30583064A103B02EBC3
:1009C400C30152F8330049688847BDE80840FFF77F
:1009D40095BF00BFFC310008014800687047000063
:1009E4008002002008B5024B1B689847002008BD10
:1009F40084020020034B044A1860937843F00203F6
:100A040093707047840200200C00002008B506494A
:100A1400064821F00701C1F1005202F5A04201F09D
:100A2400BEFD002008BD00BF671000208802002022
:100A34001F2809D8012303FA00F0044B5B6998438B
:100A44000CBF0120002070470020704700040140C3
:100A5400012300F01F021F2803FA02F39DBF034A7B
:100A6400002053616FF01500704700BF000401407F
:100A7400044B1844002301338B4200F8012BFADBAA
:100A8400704700BF540000202DE9F04105460026C0
:100A94004FF001080E4F6B78F4B2A34201D8BDE8C1
:100AA400F0812B781C442046FFF7C2FF68B1204632
:100AB400FFF7CEFF57F834303BB107EBC40204F024
:100AC4001F04516808FA04F098470136E3E700BFB1
:100AD40094020020034660B1B0FA80F2C2F11F0212
:100AE400D2B205498856054A11680B431360FFF7D3
:100AF40093BEFF22F5E700BF54000020000401402C
:100B0400024A136823EA000313607047000401409B
:100B1400032921D8DFE801F0020C10190F4B9A6861
:100B240022EA00029A60DA6822EA0002DA60704778
:100B34000A4B9A680243F5E7084BDA680243DA6025
:100B44009A6822EA00029A607047044B9A6802434A
:100B54009A60DA681043D860704700BF000401400F
:100B640030B5B0B1B0FA80F3C3F11F03DBB20B4868
:100B740050F833408C4204D100EBC3056D689542B4
:100B840005D044B940F8331000EBC30042600020A4
:100B940030BDFF23EBE76FF00F00F9E7940200206C
:100BA40060B1B0FA80F3C3F11F03DBB20021044A41
:100BB40042F8331002EBC30251607047FF23F5E79C
:100BC400940200200F2300F00302043292009340A9
:100BD40043EA9000C3B2064A023352F82320030CBE
:100BE40093FAA3F3B3FA83F302EA1040D8407047B0
:100BF4000000014038B51C4B0D4618680B8814469C
:100C0400C3F30B03013B1B2B28D8DFE803F00F1EB3
:100C14001E1E0E27180F0F272727272727272727CA
:100C2400270F2727270F27272716104820602B6810
:100C3400B3F5805F0BD2002038BD4008F6E701F021
:100C440073FE70B101F070FEF0E70020EEE7C3F32D
:100C540013330133B0FBF3F02060ECE76FF0850051
:100C6400EAE76FF00400E7E74000002000127A0092
:100C7400F8B5384F01F05AFE384601F054FE00F042
:100C84007DFB354C354A63681578C3F30313D35C95
:100C940047FA05F520FA03F6AE4202D2284600F0E0
:100CA40093FB236823F480232360236843F4803375
:100CB400236023689B03FCD5636803F00C03082BB3
:100CC40015D12368980706D4236843F001032360F1
:100CD40023689907FCD5636823F0030363606368A2
:100CE40013F00C0FFBD1636823F0F00363602368F7
:100CF40023F08073236023689A01FCD400F032F857
:100D0400236843F08073236023689B01FCD56368E8
:100D140023F0F0036360636823F0030343F00203EA
:100D24006360636803F00C03082BFAD1AE4202D36C
:100D3400284600F049FB0A4B00201F60636823F437
:100D4400E06343F480636360636823F46053636027
:100D5400F8BD00BF00A24A04001002408D3B000809
:100D640040000020054A536823F47C1343F4E8133D
:100D74005360536823F480035360704700100240AB
:100D840008B5074802F008F838B10648FFF732FE04
:100D94000448FFF711FA002008BD6FF01200FBE7CA
:100DA400E0310008AD0D00080A2838B50446074DA7
:100DB40004D1AB680D2128465B689847AB680348AB
:100DC4005B68E1B29847204638BD00BFE0310008B7
:100DD4002DE9F843D0F8049090460746D9F8080066
:100DE4000D461E4601F0FDFCB8F5001F044616D161
:100DF4002846D9F80840FFF7E5FE84420CD129467D
:100E040001F0EFFC0446FFF77BFE2046FFF7C8FE27
:100E140000212046FFF77CFE0020BDE8F883B8F5EA
:100E2400800F20D0B6F1806F19D0B6F1C06F18D002
:100E3400B6F1007F1AD102263A4620460E49FFF742
:100E44008FFEB0B92846D9F8081001F0CFFC20462F
:100E54003146FFF75DFE2046FFF73CFEDCE7012646
:100E6400EAE70326E8E76FF08500D6E76FF01500A0
:100E7400D3E76FF00F00D0E7552A0008F7B500223A
:100E8400044613468A4223D3E3B1234A13F0010FE5
:100E9400906940F0010090619269C3F3440002F04C
:100EA40001020192019A4FEA132202FA00F21B484E
:100EB40009BF4368C369134343F0E06316BF1A4391
:100EC4004360C26104EB8105A5420FD100201DE0FF
:100ED40054F82200C0F389302BB128B1984203D0D2
:100EE4006FF0150012E003460132CBE754F8046BAF
:100EF40006F01F00C6F34317FFF786F940B101233C
:100F04003246394601F09FFB0028DDDA03B0F0BD1C
:100F14006FF01200FAE700BF001002400000014029
:100F2400F8B50C46036941681E682379012B34D057
:100F34009A1E55425541AD026279022A96BF374F37
:100F44004FF4005C37F812C0A279042A28D0003B81
:100F540018BF01231B03E279012A0A680CBF4FF46E
:100F640040770027A642D1681DD121F4B05129430E
:100F74000B43D360136923F4405343EA0C03136116
:100F840043681A68536923F440733B4353613168DF
:100F94004068BDE8F84001F0F3BD4FF4C065CBE70D
:100FA4004FF48053D7E701F4C0618D421FBFD1686D
:100FB40021F4C0612943D160426811680A6902F4CE
:100FC400405294451FBF0A6922F4405242EA0C027F
:100FD4000A6142681168CA6802F4805293421FBFD2
:100FE400CA6822F480521343CB6043681A68536979
:100FF40003F440739F421FBF536923F440733B4380
:10100400536121683368994206D0406801F0B8FD05
:1010140008B923683360F8BD0020FCE728350008D0
:10102400F8B543680C461D6803691E680B79012BEB
:101034001AD0991E4A424A41920294F805C0A779EF
:10104400BCF1020F96BF2B494FF4005131F81C102C
:10105400042F00D083B1A3F1030EBEF1010F06D813
:101064006FF085031846F8BD4FF4C062E5E70BB195
:10107400042FF5D04FF48053B1F5805F31D0B1F532
:10108400405F30D000290CBF012103218C45E7D1FA
:101094005BB3002A0CBF042303239F42E0D1E3790E
:1010A40063B1012BDCD1144B9D4207D0A3F57443EB
:1010B4009D4203D003F580639D42D1D1EB68214664
:1010C40023F40053EB60FFF72BFF03460028C7D13E
:1010D400EA6842F40052EA6094E8030086E80300F8
:1010E400C0E70021D2E70221D0E7002A0CBF032386
:1010F4000223D2E728350008003801404FF0E023EE
:1011040010B599691C699B6900B103600B4A0C48CE
:101114001268002908BF1146002B08BF134614F4B7
:10112400803F01D1994205D20168114401604FF01A
:10113400E021096900681044C01A10BD240300208E
:101144001803002008B50020FFF7D8FF014B1B68E7
:10115400184408BD1C03002073B52B4B2B4A196897
:10116400D2E90032CB1842F10002294C1B1842F19B
:101174000002D4E90065954208BF9E4240D0C4E90C
:101184000032244CA04203D8231A994298BF0C1869
:101194004FF4E1535C43204B1D68FFF7D3FF431B1F
:1011A4009C422FD96FF07F43241A2C449C4228BFC1
:1011B4001C461A4B1B68A34205D9194A1178F9B980
:1011C40001211C46117001A8FFF798FF154B00265A
:1011D4001A681C604FF0E023134D013C2968084451
:1011E40012490E6099695C614FF000749E61C3F806
:1011F400044D019B994288BF9B185B1A18442860D0
:1012040002B070BD0024D4E7140300208000002045
:1012140000000020158D0400880000202003002019
:101224005C030020240300201C030020180300207A
:10123400102238B5134B4FF4E15583F823204FF4B3
:1012440034720024104B1A60104B41F61F421D608B
:101254000F4B1C604FF0E0235A6107229C611A6116
:10126400FFF770FFB0FBF5F00A4BC3E900046843D5
:10127400094BC3E90004094B01201C60FFF76CFF14
:10128400204638BD00ED00E02003002024030020A8
:101294001803002080000020880000201403002090
:1012A400F8B5164C0546D4E90076FFF74BFF4FF42A
:1012B400E153C01BB0FBF3F043434FF0000CDB19C8
:1012C40046F10006C4E900364FF0FF374FF0FF3611
:1012D4000B4AD2E900311B1841F10001C2E9003187
:1012E400084B2946C3F800C0074BC3E90067074B06
:1012F40083F800C0BDE8F84000F056BE8800002026
:101304008000002014030020000000205C03002063
:1013140010B5064B1C68FFF715FF4FF4E153001B93
:10132400B0FBF3F0024B186010BD00BF8800002032
:1013340014030020684620F007018D4619B5EFF329
:101344001184102383F31288BFF36F8F0020FFF7FB
:10135400D5FE084A084910680B6803440B60002353
:1013640020461360FFF79CFFFFF7C8FABDE8194059
:1013740085467047180300201C0300200D4A53685B
:1013840003F00C01082912D10B48C3F38341DB039A
:10139400405C09D55368094AC3F340435043084AA3
:1013A400D35CB0FBF3F07047064B584370470348D7
:1013B400704700BF001002409F3B000800127A00F3
:1013C4009D3B000800093D00D8B1104B984216D847
:1013D4000F4B984294BF002001200E4A136823F05B
:1013E400070303431360136803F0070398420AD00A
:1013F400136803F00703181A18BF0120704702206E
:10140400EBE7012070470020704700BF006CDC024E
:1014140000366E010020024010B5044601F002F9C6
:10142400024801F002F9204601F0C1FC983A000894
:101434002DE9F04104460D46EFF31187102383F3A1
:101444001288BFF36F8FDFF87480D8F8086001F05A
:10145400E9F801F0E7F8042C96BF194B194A53F840
:101464002420214698F81030174801F0DEF845B1E1
:10147400EB69C3F3080323B101F0D4F8134801F076
:10148400D4F801F0CFF836B1304601F0A3FC02469F
:1014940008B1037803B90E4A31460E4801F0C5F885
:1014A40029462046FFF7B8FF87F31188BFF36F8FF3
:1014B4003046BDE8F041FFF731BA00BF28030020F1
:1014C400FC340008A83A0008BE3A0008E73A0008CD
:1014D400B63A0008083B000838B50A4B53F82040D8
:1014E400013053F82050A54200D838BD606830B1AF
:1014F400037EDB0701D401F037FC0834F3E72368EB
:101504009847FAE710350008012270B5294B2A4C98
:101514002A4D86B01A70AC421CD30320FFF7DCFFBF
:101524000420FFF7D9FF264C264D2646AE4204F18F
:10153400300413D300F070FB214CAC422AD300F0EA
:101544007FFBFEF7CDFD204A938923F001039381AD
:1015540006B070BD54F8043B9847DCE754F80C3CE3
:10156400059354F8103C049354F8143C039354F832
:10157400183C029354F81C3C019354F8203C00930B
:1015840054E90A2354E90C0100F0C4F854F8303C3F
:101594005E65CAE7D4E90A2352EA0301206803D14D
:1015A40001F01AFC3034C8E70849183000F014FC84
:1015B400F8E700BF5D03002044330008443300080B
:1015C400443300084433000810010020C92E0008E9
:1015D4000023012270B586B0CDE904230F220193C4
:1015E400CDE9023214230F4D0F4E03FB00550F4972
:1015F40006EBC016044601EB00214FF4807230461E
:101604000B4B009500F086F8337C2C7423F0040314
:101614003374084B013403EBC423EE606B6006B0F3
:1016240070BD00BF2803002090000020600B002044
:10163400C32D0008600300207FB50020FFF74CFF96
:101644002A4B83F308882A4C2A4D636943F40073B8
:101654006361F02384F822300023E37723766376F2
:10166400A37684F82030636A43F4E0236362FFF7CF
:1016740091F8FFF73DF94FF0FF331F48A362E3628F
:1016840000F08CF8FEF7D2FD1C4CAC422AD30120AA
:10169400FFF722FF02201A4CFFF71EFF00F0B4FAF6
:1016A400184B00255C61184B4FF4806205930123AD
:1016B4001649CDE903532046154BCDE90155009554
:1016C40000F028F80646237C204623F00403237404
:1016D40001F0D5FB2846FFF77BFF314620460C4A34
:1016E400FFF7EAF854F8043B9847CEE7600B002074
:1016F40000ED00E04433000890010020443300086A
:1017040010010020280300206B3B0008600C00201F
:101714000D1500082DE9FF4D984600F15803C0E966
:101724001633109B0026838104234FF0000A4FF0E8
:10173400000B0446D51D037425F007050F9B0D44CB
:101744000F4683732946C0E90666C0E908AB866084
:10175400C673FEF7FDFDA37BC4E91A6684F87430F2
:101764000E9B266702930D9B073020F00700019320
:101774000C9B2D1A00932A46434639462046FFF710
:101784007FF8054B66659B6803B11B6E284623668C
:1017940004B0BDE8F08D00BF2803002001230374CA
:1017A40083810023827BC0E91A3303670366024BFB
:1017B40080F8742098607047280300206FF00A01B5
:1017C400084A9368D967084998674B6843F080537F
:1017D4004B60002383F31188BFF36F8F9368D86F36
:1017E400704700BF2803002000ED00E038B5184C16
:1017F400A168E0690B68814214BF1A460022496857
:101804000B605960A368E1692AB9124AC3E900214F
:101814000B60E3610AE092F90E5093F90E008542E1
:1018240012DD5168C3E900210B605360A569094BBF
:101834009D4200D005B9E568A3689D4202D02846C0
:1018440001F055FB656138BD8A42DED01268DBE7E2
:10185400280300204003002070B590F91020037C79
:10186400002A2FDBD9062DD11A4C63F07F032246C0
:10187400037452F8183FE169934207D1C0E900218B
:101884000860E0610FE09942F8D01B68002BF5D0A6
:1018940093F90E6090F90E50AE42F4DD5968C0E938
:1018A400003108605860A569954200D005B9E56823
:1018B400A3681A7CD20606D1DA897F2A03D9AA69D9
:1018C4000AB9636170BDAB4202D0284601F00FFB38
:1018D4006561F7E72803002038B590F91020014628
:1018E400002A037C04DA03F07F03037401F0B5FAE1
:1018F4000D4D2A4652F8184FAB68944200D004B9F3
:10190400EC688B4207D01A7CD20604D1DA897F2A8C
:1019140001D9A2692AB1A34202D0204601F0E7FA14
:1019240023466B6138BD00BF28030020002A2DE93F
:10193400F8430CBF4FF010084FF00808027C04462F
:1019440018EA020F0D4662D148EA0203D2090CD10B
:101954000374B8F1080F7BD1A36813B1204601F0DA
:1019640084FA102704F118060FE003F07F030374D0
:1019740001F073FAEDE785F31188BFF36F8FEFF38E
:10198400118587F31288BFF36F8F304600F0B4FAE5
:101994000B30F0D0A66D04F15807B74211D04FF0C8
:1019A400000976B1304601F060FAC6F87C9006F181
:1019B400180000F0A1FA3046FFF74EFFA66DB742BB
:1019C400EFD1274B9B689C4242D1EFF30587003F40
:1019D40018BF0127DFF888904B4653F8186F9E42D2
:1019E40000D00EB9D9F80C60D9F80830B34202D04F
:1019F400304601F07CFAB8F1100FC9F8146006D033
:101A0400204600F087FE17B11648FFF7C7FE144BB7
:101A14009B68A3421ED1EFF30583DBB9A289D207E9
:101A240011D585F31188BFF36F8F83F31188BFF34A
:101A34006F8F0423184602DFEFF31185102383F31D
:101A44001288BFF36F8F2846BDE8F843FFF7B6BE90
:101A54000027BFE785F31188BFF36F8FBDE8F883D4
:101A6400280300209001002049B9EFF3058030B924
:101A7400054B5A699B689A4201D0FFF79FBE81F3D8
:101A84001188BFF36F8F7047280300200146014877
:101A9400FFF7EABF5E03002070B50F4D06462B46E4
:101AA40053F8184F9C4200D004B9EC68AB681A7C18
:101AB400D20604D1DA897F2A01D9A2692AB1A342C4
:101AC40002D0204601F013FA23466B613046BDE88C
:101AD4007040FFF7DBBF00BF2803002070B5EFF3B1
:101AE4001186102383F31288BFF36F8F1A4CA168F9
:101AF400E0690B68814214BF1A46002249680B60F2
:101B04005960A368E1692AB9144AC3E900210B604A
:101B1400E3610AE092F90E5093F90E00854216DD56
:101B24005168C3E900210B605360A5690B4B9D42CA
:101B340000D005B9E568A3689D4202D0284601F0AB
:101B4400D6F965613046BDE87040FFF737BE8A427A
:101B5400DAD01268D7E700BF280300204003002032
:101B640051EA00032DE9F04706460D46074688462C
:101B740005D101F070F938464146BDE8F087EFF32E
:101B84001189102383F31288BFF36F8FDFF868A0E5
:101B94001A4BDAF808001860FFF79EFEDAF808001E
:101BA40032462B461649183000F016F9DAF8083098
:101BB40004461A7CC3F8789042F004021A746FF059
:101BC4000A02DA670F4A536843F0805353600023D4
:101BD40083F31188BFF36F8FB5F1FF3F08BFB6F1F0
:101BE400FF3FC8D001F0ACF9201A20EAE0700746A4
:101BF4004FEAE078BFE700BF280300204803002035
:101C0400C92E000800ED00E0024B03F11802C3E9FD
:101C14000622704728030020EFF31181102383F379
:101C24001288BFF36F8F054B9A68D37B013BD37344
:101C340081F31188BFF36F8F704700BF2803002022
:101C4400EFF31180102383F31288BFF36F8F034BDC
:101C54009A68D37B0133D373FFF71EBF2803002098
:101C6400014B9868704700BF28030020027C03469C
:101C740012F01F0210D10A4988420DD009490868A0
:101C840068B1D9897F2909D893F90E20064B1B68BE
:101C94009A42B8BF00207047002070471046704732
:101CA4009000002044000020500300200122BFF3D4
:101CB4005B8F084BC01A084BC0105843074B03EB0B
:101CC400800353E8001F43E800200028F9D1BFF344
:101CD4005B8F704710020020ABAAAAAA4C03002015
:101CE400F8B5144B04461E7C1823134D03FB06550C
:101CF400284600F001F9114B03EB86076CB1BFF3E2
:101D04005B8F53F82630BFF35B8F03B1013C22464F
:101D140028460B49E31700F05FF80023BFF35B8FFD
:101D240057E8002F47E800310029F9D1BFF35B8F52
:101D3400F8BD00BF28030020100200204C0300203F
:101D4400B11C0008F8B5EFF31187102383F3128850
:101D5400BFF36F8F154E164BB5681868A84206D1AD
:101D640001F0C5F887F31188BFF36F8FF8BD002227
:101D74001A60327C0F4BBFF35B8F53F82230BFF3F2
:101D84005B8F002BEED02846FFF770FF0446002837
:101D9400E8D02B7CDB06E5D1FFF728FD7369AB4265
:101DA400E0D12046FFF79CFFDCE700BF28030020BA
:101DB400480300204C030020024B1868984208BFD7
:101DC4000020704748000020024B186808B1FFF754
:101DD4009FBA704750000020B3F1FF3F08BFB2F133
:101DE400FF3F2DE9F84F04469A461546984679D0A8
:101DF4000161EFF31187102383F31288BFF36F8F10
:101E0400BAF1000FDFF8E49023DBFFF7DDFF384B76
:101E140006461A68003A18BF012245194AF1000320
:101E2400521943F10003D9E90051551943EB010854
:101E34000121DFF8C090C4E90223FFF7BDFFD9F800
:101E440004A0D0B9C4E9009ACAF80040C9F8044013
:101E540025E06FF00102D9E90013521A4FF0FF3167
:101E640061EB0303521B63EB0A03012A73F10001C4
:101E7400BCBF012200230021DBE7D0E9022ED4E914
:101E8400023C93427CEB0E0B23DAD21A6EEB0C036A
:101E9400C0E902234368C4E900031C604460FFF7FF
:101EA4008BFF84420DD1124B1B68013309D111B948
:101EB400FFF78AFF0646304601F020F8002100F0C3
:101EC40051FF87F31188BFF36F8F28464146BDE861
:101ED400F88F9B1A6CEB0E025045C4E90232B1D064
:101EE4000068AEE70025A846EFE700BF28020020FF
:101EF4005000002048000020F8B50446EFF3118696
:101F0400102383F31288BFF36F8F026872B3FFF755
:101F140053FF184B5B689C4208D0D2E90231D4E9E4
:101F24000275DB1941EB0501C2E90231D4E9003243
:101F34000025844213605A60C4E900550ED0002085
:101F44000D4A136823F001018C4204BF43F00103DE
:101F5400136086F31188BFF36F8FF8BDFFF734FF6A
:101F640000F0CCFF294600F0FDFEE8E76FF0150015
:101F7400E6E700BF4800002054030020EFF311827D
:101F8400102383F31288BFF36F8F064B40F00100D8
:101F94001B681B1A5842584182F31188BFF36F8F94
:101FA400704700BF5403002000232DE9F0470C467E
:101FB400334E344DDFF8D090344F30602B60D6F878
:101FC4000080B8F1000F10D14FF0FF3340462B6072
:101FD40000F094FF414600F0C5FE84F31188BFF37E
:101FE4006F8FBDE8F047FFF7ADBEFFF7E5FE6FF07A
:101FF400004330B1D0E90212994272F10002B8BF35
:102004000B464345194684BF434641464FEAE37CA9
:1020140038B18268D0F80CE0D21A6EEB0C0EC0E92D
:10202400022EA8EB01014FF0000A4FF01008D9F876
:1020340000203160D218D9F8043043EB0C03C9E90D
:102044000023FFF7B9FE0028B9D0D0E902120A43F1
:10205400B5D1D0E900210A6051600269C0E900AA43
:10206400386084F31188BFF36F8F9047EFF31184C6
:1020740088F31288BFF36F8FC7F800A0E1E700BFB1
:1020840058030020500000202802002054030020A0
:1020940010B5EFF31184102383F31288BFF36F8F0D
:1020A400FFF792FE054AD2E90031C01841F1000160
:1020B40084F31188BFF36F8F10BD00BF2802002086
:1020C4002DE9F04F43688BB00093837880469C07DA
:1020D400924640F1F98000250878002800F0F68047
:1020E40025280AD04B1C019341460135009B984793
:1020F4000028C0F2E3800199EEE74E788B1C252E70
:102104000193F1D000270A22B9463C461F2C22D85D
:10211400A6F12003102B20D8DFE803F0141F1F1AA8
:102124001F1F1F0B1F1F1F121F171F1F090044F023
:102134000104019B13F8016B0193002EE6D13AE0F0
:1021440044F0020444F00404F3E744F00804F0E724
:1021540044F01004EDE77F2C24D8A6F13003092BBA
:1021640008D860064EBF02FB073702FB093944F06A
:102174002004DEE72A2E0DD161065AF8043B53D41D
:10218400002BA7BF994644F02004C3F1000944F092
:102194002804CEE72E2E05D1630600F1978044F083
:1021A4004004C6E76C2E2ED028D8682E32D06A2E72
:1021B40037D04C2E35D0002F46F02003B8BF24F082
:1021C4004004A3F16502BCBF0027A4B2022A01D9CE
:1021D400612B2BD107270AF1070A2AF0070A9C4E24
:1021E4000AF1080A210760D5344606EB070B5C4563
:1021F4005DD1AE1BA219A9EB070959E1742E98D041
:102204007A2E96D0D7E7260648BF44F4007444F0EB
:1022140080048EE7E00548BF44F4007444F48074FD
:1022240087E744F4207484E71F4682E7A6F163023B
:10223400122A00F2D880DFE812F013004D00D60015
:10224400D600D600D6004D00D600D600D600D60063
:10225400D600E800D100D600D6001A00D600A000AF
:102264005AF8043B01278DF8103004AEBAE75AF847
:10227400046B784B002E08BF1E4614F0400F14BFA9
:1022840039464FF0FF31304600F074FE0746A9E7A7
:1022940041462020009B984700280FDB013CA742C1
:1022A400F6D34D442D1BA1469EE74C46F7E7414625
:1022B40014F8010B009B9847002898DA98F802302C
:1022C40043F0040388F802304FF0FF3528460BB082
:1022D400BDE8F08F220630D5A3052AD50AF1070AF6
:1022E4002AF007039A4659685AF8080B24F0100B91
:1022F40000291FFA8BFB2FDA404261EB41014BF4BA
:10230400806B0A2304AC224600F040FE1BF0400F11
:10231400A0EB040200F08E802BF001049742A4B2DB
:1023240040F38F80002E40F08E802BF01104A4B275
:102334001DE05AF8040BC117D8E7E0055AF8041B4E
:1023440001D40846F7E7A2054BBF48B208B241F3EF
:10235400C01141F3C031C9E750EA0103D1D163068A
:10236400CFD5002FCDD13A4624F01104A4B23B4678
:1023740040F206410C4262D124E00A2324F0100406
:10238400A4B214F0800243D014F400711FBF0AF108
:10239400070A2AF007029246516814BF5AF8080B3C
:1023A4005AF8040B50EA01023ED124F0160B6206DF
:1023B4001FFA8BFB3CD5002F3AD13A463B4624F01A
:1023C4001704A4B221075AD4E10705D5994572DD53
:1023D400A9EB03039F184B469B464AE0102378263B
:1023E40044F01004CDE7782B04D1C6F1780343F010
:1023F4001003C6E741462520009B98470028FFF6B6
:102404005DAF41463046023570E608230026B8E742
:1024140014F480715AF8040BC4D014F400711ABF78
:102424001146C0B280B2BDE724F006041FFA84FB53
:1024340004AC68E713465C46E10699D52EB901332E
:10244400C0E71346F8E73B46F6E70233BAE700BFB6
:10245400773B0008703B0008CDE90232414620205A
:10246400009B98470028FFF629AFDDE902320BF103
:10247400010BD945F0DCEB1A03EB0B055B46E106D7
:1024840027D5CDE9023241463020009B98470028E9
:10249400FFF614AFDDE902327EB901352F44791B12
:1024A4008A4228DB144604AE94BB2A44A9EB0309F0
:1024B4001546914441E017468EE741463046CDE942
:1024C40002320235009B9847DDE902320028E5DA42
:1024D400F4E640F206410C42E0D014F0020F14BFBF
:1024E4002B20202014F4806F414618BF2D20CDE905
:1024F40002320135E6E7CDE902324146009B302045
:102504009847DDE90232002805F10105C7DAD5E66E
:10251400013CCDE902324146009B305D9847DDE93C
:1025240002320028C0DAC9E641462020009B9847C1
:10253400002805F10105FFF6C1AEA9EB0503002B48
:10254400F2DCD8E5704700EBC100408840087047D2
:10255400F8B50346FFF7F7FFB0FA80F0C0F11F00AB
:1025640003EB800CDCF81060CA00171D0C46063221
:102574008DB256B9012101FA00F0D9680143D9603E
:10258400CCF81040DD539D52F8BDF1000431585A87
:10259400D85303EBC0009E52C5805D52F4E7043A61
:1025A4002DE9F843CC1D114424F0070421F007065B
:1025B400A6EB04084FEAD807B7FA87F24FF00009F0
:1025C400C2F12405AD000735C2F12002ED08046014
:1025D4004946A760C4F80C90920004F1100000F082
:1025E400C1FCAAB2530043F0010363807B1B9BB27E
:1025F40004EBC5015800A4F80090488024F8352065
:10260400A6F8029024F8083004EBC7035A88294638
:1026140042F001025A802046BDE8F843FFF798BF14
:10262400002070477047FDF7AFBD0FB407B504A98C
:1026340051F8040B0191FFF7F6FF03B05DF804EBCA
:1026440004B070477047F0B54068072944684FF0FC
:10265400010001F0070500FA01F64FEA062786BFDC
:10266400A840384346EA070002F4F05788BF40F018
:102674008060B7F5805F23D196044FEA10236FEA98
:1026840010201AD5E668064093FAA3F00123B0FAA5
:1026940080F083403343E3600F20072988BF04346C
:1026A4002168AB00C2F343229A4000FA03F321EA03
:1026B40003031A4322600020F0BDE3680340EAE705
:1026C40012F4C06FE8D0002BE6D0D004E4D4930415
:1026D4004CBF26616661DFE700F044BC00F034BC07
:1026E40001460068FDF7F4BD08B5FDF72DFEBDE811
:1026F4000840FEF703B900210120FDF7E9BD08B544
:10270400FEF7AEF8FDF7BCFDFDF7C6FDFEF746F992
:10271400FEF792FF6FF08500704761B662B680F3F2
:102724001188BFF36F8F704772B6002383F311884B
:10273400BFF36F8FBFF34F8F30BF62B6BFF36F8F9E
:10274400704708B5FEF74EF9002008BD0020704719
:1027540008B5062201210020FEF78AF9002206208E
:102764001146FEF767F8012107220846FEF780F9B3
:10277400002207201146FEF75DF8082201210220FD
:10278400FEF776F9002208201146FEF753F80922D5
:1027940001210320FEF76CF9002209201146FEF7FF
:1027A40049F80A2201210420FEF762F900220A20D6
:1027B4001146FEF73FF8052117220846FEF758F99F
:1027C400002217201146FEF735F8282206210A2098
:1027D400FEF74EF9002228201146FEF72BF80020C0
:1027E40008BD012001F01F01884070470F2300F04D
:1027F400030204329200934043EA9000020C92FADE
:10280400A2F2B2FA82F210B5C3B29B0003F1804384
:1028140003F580339C68914024EA10400143996099
:1028240010BD0B8882B0C3F30B0303F6EC72C2F342
:102834000B02082A14D803F1804303F504331A6801
:102844004868024300201A600B88C3F30B0303F1AA
:10285400804303F504331B680193019B02B0704766
:102864006FF08500FAE70B88C3F30B0303F6EC72F1
:10287400C2F30B02082A9FBF03F1804303F504331C
:102884001A6849689BBF00208A436FF085001A606C
:102894007047012806D00538052834BF00206FF0A2
:1028A400850070470020704770B508884B68C0F3F6
:1028B4000B009AB2C3F30445FFF7EBFFA0B9FF2B5B
:1028C40011D002F180410122C3F34156013601F5D2
:1028D4000431B2400C68013AAA401B0E24EA0202F9
:1028E400AB4013430B6070BD6FF08500FBE70888B5
:1028F40008B5C0F30B0000F6EC73C3F30B03082B0D
:102904000AD800F1804000F5043002684B68934314
:102914000CBF0220012008BDFFF7BBFF00280CBF3D
:1029240002200120F7E77047002070477047436892
:1029340000205B689B680B60704743685B68D868DD
:1029440042400A404240DA60002070474368002059
:102954005B6819617047436800205B685961704780
:10296400436800205B68DA685140D960704730B52D
:102974000369986800B30024884219D108688CB9A7
:10298400DC689860A14200D1D860002008602AB1B8
:102994009A680A60DA68996002B9D96000200FE089
:1029A4002846E9E72060D868814208BFDC60ECE78C
:1029B40005680446002DF3D1002AE9D16FF0150013
:1029C40030BDF8B50C46910313462DD59A0728D58A
:1029D4005F0733D54FF460621E0301D542F4005201
:1029E40013F44036056908D06F6827FA04F1C90763
:1029F4005FBF0121A1403943696003F44023003BD8
:102A040018BF01232146FFF71EFE46B96B6823FA5F
:102A140004F2D20741BF0122A24093436B6000201D
:102A2400F8BD4FF4C062D7E7DD0302F0300203D5EE
:102A34003AB94FF40062D3E7002AD1D06FF0850091
:102A4400EEE7102A14BF4FF480524FF44052C7E708
:102A540070B50B690E469968054609B10C6801B951
:102A640070BD8A682A4002D030464B6898471CB132
:102A7400236821461C46F2E72346FAE730B503688B
:102A840013600579046804EBC504A34202D36FF014
:102A9400010030BD5C7908338C42F1D10020F8E7A5
:102AA4004368C1F34B101B6801F01F01C058012398
:102AB4008B400340003B18BF012300201370704774
:102AC40010B54368C1F34B101A680123845801F010
:102AD4001F018B4023438350002010BD012210B5F9
:102AE4004368C1F34B14186801F01F0123588A404E
:102AF40023EA02032350002010BD38B504460D46D6
:102B0400FFF7DEFF29462046FFF7E8FF002038BD27
:102B1400036882B00193019B43680193019B02B057
:102B2400704708B54368186802680368C2F3C002B6
:102B340003F0010342EA430203689B07036848BFAA
:102B440042F004025907036848BF42F02002DB0543
:102B540042BF6FF4807342F008020360D10701D5CD
:102B6400FFF7D6FF930701D5FFF7D2FF510701D531
:102B7400FFF7CEFF930601D5FFF7CAFF104608BD45
:102B840037B503460D46046819B96FF0150003B054
:102B940030BD406819698368DB68D3B101AA9847DE
:102BA4000028F4DB1922019BAD0053436422B3FBDC
:102BB400F5F1B1FBF2F002FB10131B013233B3FB4E
:102BC400F2F303EB00130F2BDFD99BB20020A360B9
:102BD400DDE76FF05700DAE708B543681868036863
:102BE4001A0701D5FFF794FF03689B0649BF4368A2
:102BF4004FF0FF3000200B7008BD10B54368102063
:102C04001B681A681206FCD5EFF3118280F3128850
:102C1400BFF36F8F1C68240604D482F31188BFF3BA
:102C24006F8FEEE7596082F31188BFF36F8F10BD89
:102C3400F7B5446805466068216983681B68002B02
:102C440040D0984700283BDB0021606A01AAFFF7C7
:102C540015FF002834DB019B002219791868FEF760
:102C64000DF900282CDB6E682B6934681F68E36853
:102C740023F40053E360B06800F08EF828B3D6E97B
:102C840002018368DB6803B1984704F10C0353E83D
:102C9400003F43F00C0304F10C0141E80032002A28
:102CA400F3D139462846FEF73BF988B9337E1BB188
:102CB400636943F008036361E36843F40053E3602A
:102CC40003B0F0BD6FF05700FAE76FF01200F7E7BA
:102CD4006FF01500F4E703691B681B680B60436819
:102CE4001B68DB6803F4C063B3F5806F2FD0A3F5D2
:102CF400C06CDCF1000343EB0C030B7143681B68ED
:102D04001B6903F44053B3F5805F22D0B3F5405FF1
:102D140021D0002B0CBF012303234B7143681B6894
:102D2400DA68DB68D20403F4C06316D5002B0CBF49
:102D3400042303238B71436800201B685B6903F43D
:102D44004073A3F5407253425341CB717047022341
:102D5400D3E70023E1E70223DFE7002B0CBF0323C3
:102D64000223E7E7FEF7F8B910B5436904463BB917
:102D74000020E2684042537843F00103537010BDD1
:102D840098470028F4D00028B8BF4042FF28A8BFC5
:102D9400FF20E3681870ECE740B1C368587810F07E
:102DA40001001EBF1878B0FA80F040097047EFF3B5
:102DB4001183102383F31288BFF36F8FFEE710B5DE
:102DC4001024EFF3118384F31288BFF36F8FFFF79E
:102DD400ABFCF6E70020704738B50446EFF31185E5
:102DE400102383F31288BFF36F8F037C5B070ED528
:102DF4001830FFF781F8237C204623F00403237462
:102E0400FEF72AFD2846BDE83840FEF73FBE85F3AD
:102E14001188BFF36F8F38BD38B58589EFF3118101
:102E2400102282F31288BFF36F8F037C13F008041F
:102E340004D081F31188BFF36F8F38BD0122FEF7F0
:102E440075FDEB07F9D584F31188BFF36F8F042365
:102E5400184602DFF1E7FEF741BED0E90032136005
:102E64005A600023C0E90033704708B5FFF7F5FF47
:102E7400037C23F0020303740023836008BD10B5B0
:102E8400EFF31184102383F31288BFF36F8FFEF7DF
:102E9400E3FC84F31188BFF36F8F10BD08B5037C86
:102EA400014613F0280F0CD183680BB1FFF7DDFF47
:102EB4000B7C084623F004030B74BDE80840FEF7BE
:102EC400CBBC08BD38B50446EFF31185102383F35A
:102ED4001288BFF36F8FFFF751F818B9A4F11800E7
:102EE400FFF7DCFF85F31188BFF36F8F38BD08B59A
:102EF400FEF7BCFEBDE80840FEF7F2BE08B5024688
:102F0400FEF75AFF6FF00041B8B18A4213D2D0E9FC
:102F14000230B0F1FF3F08BFB3F1FF3F03D08B4253
:102F240070F1000003DB6FF00040801A08BD9A4284
:102F340001D2981AFAE70020F8E78A42F3D3F5E7BA
:102F440008B5FFF7A5F808BD0A44914200F1FF3324
:102F540000D1704710B511F8014B914203F8014FAD
:102F6400F9D110BD03460244934200D1704703F8DF
:102F7400011BF9E7024610B501448A42134603D007
:102F84001C780132002CF8D1181A10BDF0B5044693
:102F94001046C3F13707FFB203F01F03082BE6B254
:102FA40033D0102B3ED06508A40844EA817445EA66
:102FB400C1752D194FEA910242EB5102290941EAE8
:102FC40002716D1842EB1212290A41EA02616D186E
:102FD40042EB1222290C41EA02416D1842EB1242E3
:102FE400AD1842F10002EC0844EA4274D10804EB43
:102FF4008402A6EB4205EDB2092D0CD90134A5F1EA
:103004000A0541F10001EDB212E0E40844EA41741A
:1030140006F00705C908303554EA010200F8015BDF
:10302400BCD1F0BD240944EA017406F00F05090976
:0C303400092D84BFED19EDB2EDE700009E
:1030400000000000C8300008C901000800000000AE
:1030500000000000E43000080000000054310008C7
:103060000000000038310008000000008C3100082A
:10307000000000001C3100080000000000310008C2
:103080000000000070310008552700080000000013
:1030900000000000C431000800000000A831000852
:1030A00000000000E0310008850D0008000000006D
:1030B0003512000800000000110A0008000000009E
:0830C00071010008000000008E
:1030C8004A3A000800000000783300087000002029
:1030D80000000000750C000800000000573A0008C6
:1030E8002034000868330008720000200000000047
:1030F8000000000000000000CC350008A8330008DC
:10310800443300086400002030020020ED0100086C
:1031180000000000DA350008BC330008443300081A
:103128006600002040020020ED01000800000000B9
:10313800E8350008D0330008443300086800002050
:1031480050020020ED01000800000000F6350008DC
:10315800E4330008443300086A00002060020020BD
:10316800ED0100080000000004360008F8330008EC
:10317800443300086C00002070020020ED010008B4
:10318800000000002C3A00080000000000000000C9
:103198006E00002000000000512700080000000019
:1031A800683A0008243400089433000874000020AA
:1031B8001C000020352C000800000000783A0008A8
:1031C8006C340008943300087600002028000020A2
:1031D800352C000800000000883A0008B4340008C4
:1031E800943300087800002034000020352C0008B3
:0431F80000000000D3
:1031FC0000000000FB26000800000000FB26000871
:10320C0000000000FB26000800000000FB26000860
:10321C0000000000FB26000800000000FB26000850
:10322C008B3B00088D0A0008893B00088D0A0008BA
:10323C00873B00088D0A0008853B00088D0A0008B2
:10324C00833B00088D0A000800000000FB260008E4
:10325C0000000000FB26000800000000FB26000810
:10326C0000000000FB26000800000000FB26000800
:10327C0000000000FB26000800000000FB260008F0
:10328C0000000000FB26000800000000FB260008E0
:10329C0000000000FB26000800000000FB260008D0
:1032AC0000000000FB260008813B00088D0A000886
:1032BC0000000000FB26000800000000FB260008B0
:1032CC0000000000FB26000800000000FB260008A0
:1032DC0000000000FB26000800000000FB26000890
:1032EC0000000000FB26000800000000FB26000880
:1032FC0000000000FB26000800000000FB26000870
:10330C0000000000FB26000800000000FB2600085F
:10331C0000000000FB26000800000000FB2600084F
:10332C0000000000FB26000800000000FB2600083F
:08333C007F3B00088D0A000828
:10334400C7290008332900083F290008512900082B
:103354005B29000865290008D50D000873290008B9
:1033640000000000A52A0008C52A0008E12A000878
:10337400FF2A0008272800086B2800080000000026
:10338400F90B0008F328000800000000AD2800082D
:10339400DD2B0008FF2B0008272B00082510000850
:0433A400DB2C000816
:1033A800FFFF0000001801400400000018000000A2
:1033B80040000000FFFF000000140140030000006F
:1033C8001800000020000000FFFF0000001001406E
:1033D800020000001800000010000000FFFF0000BD
:1033E800000C014001000000180000000800000067
:1033F800FFFF000000080140000000001800000066
:103408000400000070310008543100083831000809
:103418001C3100080031000800100240004800403C
:10342800C8300008E4300008120200004C340008DC
:103438000100000000000000000000000000000083
:10344800543400081C000000000004005C3400082C
:10345800010000006434000802000000411332003B
:103468006109320000440040C8300008E430000818
:103478001102000094340008010000000000000060
:1034880000000000000000009C3400081C00000040
:1034980000000200A434000801000000AC34000859
:1034A80002000000409211006088110000380140BD
:1034B800C8300008E43000088E010000DC34000841
:1034C80001000000000000000000000000000000F3
:1034D800E43400081800000000400000EC34000844
:1034E80001000000F434000802000000201311005D
:1034F80040091100213B00082F3B0008433B00080E
:10350800523B00085E3B000840300008403000088D
:10351800B0300008B8300008C0300008C8300008D3
:103528000010000000304F4E004F464600536169BE
:1035380020726F6920667269656E64004B686F6EF1
:1035480067207468696D2074686179206368616EAA
:103558002063616D004B686F6920646F6E6720633C
:1035680068616E2063616D20626C696E6B2074689F
:10357800616E6820636F6E67004C45442053746128
:1035880074653A2025730A002A2A2A20426F6F742C
:10359800696E67205A6570687972204F532062758A
:1035A800696C642076342E342E302D313434353223
:1035B8002D67653137643463366338366166202A8F
:1035C8002A2A0A006770696F403430303131383048
:1035D80030006770696F403430303131343030003A
:1035E8006770696F40343030313130303000677087
:1035F800696F403430303130633030006770696F44
:103608004034303031303830300072302F61313A48
:103618002020307825303878202072312F61323AD6
:103628002020307825303878202072322F61333AC4
:1036380020203078253038780A0072332F61343AE8
:103648002020307825303878207231322F69703A4E
:103658002020307825303878207231342F6C723A37
:1036680020203078253038780A0020787073723A34
:1036780020203078253038780A004661756C7469E6
:103688006E6720696E737472756374696F6E2061FA
:1036980064647265737320287231352F7063293A18
:1036A800203078253038780A00556E68616E646C71
:1036B8006564204952516E3A2025640A002A2A2A54
:1036C8002A2A205553414745204641554C54202A23
:1036D8002A2A2A2A0A0020204469766973696F6EAB
:1036E800206279207A65726F0A002020556E616C1D
:1036F80069676E6564206D656D6F727920616363BB
:103708006573730A0020204E6F20636F70726F63B9
:103718006573736F7220696E737472756374696F01
:103728006E730A002020496C6C6567616C206C6FB1
:103738006164206F66204558435F52455455524E88
:1037480020696E746F2050430A002020496C6C6514
:1037580067616C20757365206F6620746865204505
:103768005053520A002020417474656D707420749F
:103778006F206578656375746520756E6465666924
:103788006E656420696E737472756374696F6E0A0E
:10379800002A2A2A2A2A20425553204641554C54A9
:1037A800202A2A2A2A2A0A002020537461636B6976
:1037B8006E67206572726F720A002020556E7374EE
:1037C80061636B696E67206572726F720A002020F0
:1037D80050726563697365206461746120627573F2
:1037E800206572726F720A002020424641522041C1
:1037F8006464726573733A20307825780A00202053
:10380800496D7072656369736520646174612062D3
:103818007573206572726F720A002020496E737486
:1038280072756374696F6E20627573206572726F4A
:10383800720A002A2A2A2A2A204D50552046415524
:103848004C54202A2A2A2A2A0A0020205374616309
:103858006B696E67206572726F722028636F6E7471
:103868006578742061726561206D6967687420628B
:1038780065206E6F742076616C6964290A002020C7
:1038880044617461204163636573732056696F6C8A
:103898006174696F6E0A0020204D4D4641522041E7
:1038A8006464726573733A20307825780A002020A2
:1038B800496E737472756374696F6E2041636365D2
:1038C80073732056696F6C6174696F6E0A00526574
:1038D80073657276656420457863657074696F6E88
:1038E80020280053707572696F757320696E74654E
:1038F80072727570742028495251200053505345F4
:103908004C20696E20746872656164206D6F64650F
:1039180020646F6573206E6F7420696E64696361DB
:103928007465205053500A0045534620636F756CE8
:1039380064206E6F742062652072657472696576A2
:103948006564207375636365737366756C6C792E33
:10395800205368616C6C206E65766572206F6363B6
:1039680075722E0A002A2A2A2A2A204841524420FF
:103978004641554C54202A2A2A2A2A0A0020204245
:103988007573206661756C74206F6E20766563743C
:103998006F72207461626C6520726561640A002030
:1039A800204465627567206576656E740A0020207C
:1039B8004661756C7420657363616C6174696F6EC0
:1039C80020287365652062656C6F77290A0041526B
:1039D80043485F45584345505420776974682072BE
:1039E8006561736F6E2025780A0A002A2A2A2A2A16
:1039F800204465627567206D6F6E69746F7220650B
:103A08007863657074696F6E202A2A2A2A2A0A0048
:103A18002A2A2A2A2A20257320256429202A2A2AA4
:103A28002A2A0A00696E746572727570742D636F44
:103A38006E74726F6C6C6572403430303130343073
:103A480030007263634034303032313030300072CD
:103A5800657365742D636F6E74726F6C6C6572003C
:103A680073657269616C40343030303438303000FE
:103A780073657269616C40343030303434303000F2
:103A880073657269616C40343030313338303000DE
:103A980048616C74696E672073797374656D0A0088
:103AA800556E6B6E6F776E206572726F7200756EF1
:103AB8006B6E6F776E003E3E3E205A455048595215
:103AC80020464154414C204552524F522025643AD9
:103AD800202573206F6E204350552025640A004628
:103AE80061756C7420647572696E6720696E74659F
:103AF80072727570742068616E646C696E670A0012
:103B080043757272656E74207468726561643A20D8
:103B1800257020282573290A0043505520657863AD
:103B2800657074696F6E00556E68616E646C65646B
:103B380020696E7465727275707400537461636B7A
:103B4800206F766572666C6F77004B65726E656C78
:103B5800206F6F7073004B65726E656C2070616EBC
:103B68006963006D61696E00286E756C6C29002AA6
:103B7800666C6F61742A000A0605050401030102D8
:103B88000101010001000000000000000001020323
:103B98000406070809010202030405060708090AC2
:083BA8000B0C0D0E0F101000B4
:103BB000FFFFFFFFFFFFFFFF2526000800000000BA
:103BC000472700080000000000000000200000203F
:103BD00000C20100000103002C00002000C201000F
:103BE000000103003800002000C2010000010300B2
:103BF00000127A00C80000004800002048000020A1
:103C0000FFFFFFFFFFFFFFFFFFFFFFFFFFFFFFFFC4
:043C1000FFFFFFFFB4
:103C140000000000000000000000000000000000A0
:083C2400000000000000000098
:043C2C0015E015E0AA
:04000005080007C523
:00000001FF
